{
  "contractName": "cont",
  "abi": [
    {
      "inputs": [],
      "stateMutability": "nonpayable",
      "type": "constructor"
    },
    {
      "anonymous": false,
      "inputs": [
        {
          "indexed": true,
          "internalType": "address",
          "name": "remover",
          "type": "address"
        },
        {
          "indexed": false,
          "internalType": "string",
          "name": "ipfsHash",
          "type": "string"
        }
      ],
      "name": "DNARemoved",
      "type": "event"
    },
    {
      "anonymous": false,
      "inputs": [
        {
          "indexed": true,
          "internalType": "address",
          "name": "updater",
          "type": "address"
        },
        {
          "indexed": false,
          "internalType": "string",
          "name": "name",
          "type": "string"
        },
        {
          "indexed": false,
          "internalType": "string",
          "name": "ipfsHash",
          "type": "string"
        }
      ],
      "name": "DNAUpdated",
      "type": "event"
    },
    {
      "anonymous": false,
      "inputs": [
        {
          "indexed": true,
          "internalType": "address",
          "name": "uploader",
          "type": "address"
        },
        {
          "indexed": false,
          "internalType": "string",
          "name": "name",
          "type": "string"
        },
        {
          "indexed": false,
          "internalType": "string",
          "name": "ipfsHash",
          "type": "string"
        }
      ],
      "name": "DNAUploaded",
      "type": "event"
    },
    {
      "anonymous": false,
      "inputs": [
        {
          "indexed": true,
          "internalType": "address",
          "name": "user",
          "type": "address"
        },
        {
          "indexed": false,
          "internalType": "uint256",
          "name": "similarityScore",
          "type": "uint256"
        },
        {
          "indexed": false,
          "internalType": "string",
          "name": "name1",
          "type": "string"
        },
        {
          "indexed": false,
          "internalType": "string",
          "name": "name2",
          "type": "string"
        },
        {
          "indexed": false,
          "internalType": "string",
          "name": "ipfsHash1",
          "type": "string"
        },
        {
          "indexed": false,
          "internalType": "string",
          "name": "ipfsHash2",
          "type": "string"
        }
      ],
      "name": "FamilyMatch",
      "type": "event"
    },
    {
      "inputs": [],
      "name": "owner",
      "outputs": [
        {
          "internalType": "address",
          "name": "",
          "type": "address"
        }
      ],
      "stateMutability": "view",
      "type": "function",
      "constant": true
    },
    {
      "inputs": [
        {
          "internalType": "string",
          "name": "_name",
          "type": "string"
        },
        {
          "internalType": "string",
          "name": "_ipfsHash",
          "type": "string"
        }
      ],
      "name": "uploadSingleDNA",
      "outputs": [],
      "stateMutability": "nonpayable",
      "type": "function"
    },
    {
      "inputs": [
        {
          "internalType": "string",
          "name": "_name",
          "type": "string"
        }
      ],
      "name": "retrieveDNA",
      "outputs": [
        {
          "internalType": "string",
          "name": "",
          "type": "string"
        }
      ],
      "stateMutability": "view",
      "type": "function",
      "constant": true
    },
    {
      "inputs": [
        {
          "internalType": "string",
          "name": "_ipfsHash",
          "type": "string"
        }
      ],
      "name": "removeDNA",
      "outputs": [],
      "stateMutability": "nonpayable",
      "type": "function"
    },
    {
      "inputs": [
        {
          "internalType": "string",
          "name": "_name",
          "type": "string"
        },
        {
          "internalType": "string",
          "name": "_ipfsHash",
          "type": "string"
        }
      ],
      "name": "updateDNA",
      "outputs": [],
      "stateMutability": "nonpayable",
      "type": "function"
    },
    {
      "inputs": [
        {
          "internalType": "string",
          "name": "_ipfsHash",
          "type": "string"
        }
      ],
      "name": "getSimilarFiles",
      "outputs": [
        {
          "components": [
            {
              "internalType": "string",
              "name": "name1",
              "type": "string"
            },
            {
              "internalType": "string",
              "name": "name2",
              "type": "string"
            },
            {
              "internalType": "string",
              "name": "ipfsHash1",
              "type": "string"
            },
            {
              "internalType": "string",
              "name": "ipfsHash2",
              "type": "string"
            },
            {
              "internalType": "uint256",
              "name": "similarityPercentage",
              "type": "uint256"
            }
          ],
          "internalType": "struct cont.SimilarDNA[]",
          "name": "",
          "type": "tuple[]"
        }
      ],
      "stateMutability": "view",
      "type": "function",
      "constant": true
    }
  ],
  "bytecode": "0x608060405234801561001057600080fd5b50336000806101000a81548173ffffffffffffffffffffffffffffffffffffffff021916908373ffffffffffffffffffffffffffffffffffffffff160217905550612a49806100606000396000f3fe608060405234801561001057600080fd5b50600436106100625760003560e01c80638da5cb5b146100675780639dcebc6714610085578063a5e39b80146100b5578063c191e639146100d1578063d6bd7b1a146100ed578063de606e7c14610109575b600080fd5b61006f610139565b60405161007c9190611b76565b60405180910390f35b61009f600480360381019061009a9190611ceb565b61015d565b6040516100ac9190611db3565b60405180910390f35b6100cf60048036038101906100ca9190611dd5565b6103a7565b005b6100eb60048036038101906100e69190611dd5565b610649565b005b61010760048036038101906101029190611ceb565b610a1d565b005b610123600480360381019061011e9190611ceb565b610c8a565b6040516101309190611ffd565b60405180910390f35b60008054906101000a900473ffffffffffffffffffffffffffffffffffffffff1681565b606060005b600160003373ffffffffffffffffffffffffffffffffffffffff1673ffffffffffffffffffffffffffffffffffffffff1681526020019081526020016000208054905081101561036657826040516020016101bd919061205b565b60405160208183030381529060405280519060200120600160003373ffffffffffffffffffffffffffffffffffffffff1673ffffffffffffffffffffffffffffffffffffffff168152602001908152602001600020828154811061022457610223612072565b5b90600052602060002090600202016000016040516020016102459190612199565b604051602081830303815290604052805190602001200361035357600160003373ffffffffffffffffffffffffffffffffffffffff1673ffffffffffffffffffffffffffffffffffffffff16815260200190815260200160002081815481106102b1576102b0612072565b5b906000526020600020906002020160010180546102cd906120d0565b80601f01602080910402602001604051908101604052809291908181526020018280546102f9906120d0565b80156103465780601f1061031b57610100808354040283529160200191610346565b820191906000526020600020905b81548152906001019060200180831161032957829003601f168201915b50505050509150506103a2565b808061035e906121df565b915050610162565b506040517f08c379a000000000000000000000000000000000000000000000000000000000815260040161039990612273565b60405180910390fd5b919050565b60008251116103eb576040517f08c379a00000000000000000000000000000000000000000000000000000000081526004016103e2906122df565b60405180910390fd5b600081511161042f576040517f08c379a00000000000000000000000000000000000000000000000000000000081526004016104269061234b565b60405180910390fd5b60005b600160003373ffffffffffffffffffffffffffffffffffffffff1673ffffffffffffffffffffffffffffffffffffffff16815260200190815260200160002080549050811015610609578260405160200161048d919061205b565b60405160208183030381529060405280519060200120600160003373ffffffffffffffffffffffffffffffffffffffff1673ffffffffffffffffffffffffffffffffffffffff16815260200190815260200160002082815481106104f4576104f3612072565b5b90600052602060002090600202016000016040516020016105159190612199565b60405160208183030381529060405280519060200120036105f65781600160003373ffffffffffffffffffffffffffffffffffffffff1673ffffffffffffffffffffffffffffffffffffffff168152602001908152602001600020828154811061058257610581612072565b5b9060005260206000209060020201600101908161059f9190612502565b503373ffffffffffffffffffffffffffffffffffffffff167f7be6ede30a0564336582641b40bab696b0b2f8ad1f28589d92d935003285fbdb84846040516105e89291906125d4565b60405180910390a250610645565b8080610601906121df565b915050610432565b506040517f08c379a000000000000000000000000000000000000000000000000000000000815260040161063c90612273565b60405180910390fd5b5050565b60008054906101000a900473ffffffffffffffffffffffffffffffffffffffff1673ffffffffffffffffffffffffffffffffffffffff163373ffffffffffffffffffffffffffffffffffffffff16146106d7576040517f08c379a00000000000000000000000000000000000000000000000000000000081526004016106ce9061267d565b60405180910390fd5b600082511161071b576040517f08c379a0000000000000000000000000000000000000000000000000000000008152600401610712906122df565b60405180910390fd5b600081511161075f576040517f08c379a00000000000000000000000000000000000000000000000000000000081526004016107569061234b565b60405180910390fd5b60005b600160003373ffffffffffffffffffffffffffffffffffffffff1673ffffffffffffffffffffffffffffffffffffffff1681526020019081526020016000208054905081101561091357600160003373ffffffffffffffffffffffffffffffffffffffff1673ffffffffffffffffffffffffffffffffffffffff16815260200190815260200160002081815481106107fd576107fc612072565b5b9060005260206000209060020201600001600160003373ffffffffffffffffffffffffffffffffffffffff1673ffffffffffffffffffffffffffffffffffffffff168152602001908152602001600020828154811061085f5761085e612072565b5b906000526020600020906002020160010160405160200161088192919061269d565b6040516020818303038152906040528051906020012083836040516020016108aa9291906126c1565b6040516020818303038152906040528051906020012003610900576040517f08c379a00000000000000000000000000000000000000000000000000000000081526004016108f790612757565b60405180910390fd5b808061090b906121df565b915050610762565b50600160003373ffffffffffffffffffffffffffffffffffffffff1673ffffffffffffffffffffffffffffffffffffffff168152602001908152602001600020604051806040016040528084815260200183815250908060018154018082558091505060019003906000526020600020906002020160009091909190915060008201518160000190816109a69190612502565b5060208201518160010190816109bc9190612502565b5050506109c98282610fb7565b3373ffffffffffffffffffffffffffffffffffffffff167ffce61b60e7b0251aee9dbb4ba7f58a6b9bcfa9d4c9440b404e2dd81273eb52d88383604051610a119291906125d4565b60405180910390a25050565b6000815111610a61576040517f08c379a0000000000000000000000000000000000000000000000000000000008152600401610a58906127c3565b60405180910390fd5b60005b600160003373ffffffffffffffffffffffffffffffffffffffff1673ffffffffffffffffffffffffffffffffffffffff16815260200190815260200160002080549050811015610c4b5781604051602001610abf919061205b565b60405160208183030381529060405280519060200120600160003373ffffffffffffffffffffffffffffffffffffffff1673ffffffffffffffffffffffffffffffffffffffff1681526020019081526020016000208281548110610b2657610b25612072565b5b9060005260206000209060020201600101604051602001610b479190612199565b6040516020818303038152906040528051906020012003610c3857600160003373ffffffffffffffffffffffffffffffffffffffff1673ffffffffffffffffffffffffffffffffffffffff1681526020019081526020016000208181548110610bb357610bb2612072565b5b906000526020600020906002020160008082016000610bd29190611ad8565b600182016000610be29190611ad8565b50503373ffffffffffffffffffffffffffffffffffffffff167fc7544131f9ff034cb23e857e31328b0f2f2aac6cf911d1034af732a350afa4ac83604051610c2a9190611db3565b60405180910390a250610c87565b8080610c43906121df565b915050610a64565b506040517f08c379a0000000000000000000000000000000000000000000000000000000008152600401610c7e90612273565b60405180910390fd5b50565b6060600082604051602001610c9f919061205b565b604051602081830303815290604052805190602001209050600260003373ffffffffffffffffffffffffffffffffffffffff1673ffffffffffffffffffffffffffffffffffffffff1681526020019081526020016000206000828152602001908152602001600020805480602002602001604051908101604052809291908181526020016000905b82821015610fab57838290600052602060002090600502016040518060a0016040529081600082018054610d5a906120d0565b80601f0160208091040260200160405190810160405280929190818152602001828054610d86906120d0565b8015610dd35780601f10610da857610100808354040283529160200191610dd3565b820191906000526020600020905b815481529060010190602001808311610db657829003601f168201915b50505050508152602001600182018054610dec906120d0565b80601f0160208091040260200160405190810160405280929190818152602001828054610e18906120d0565b8015610e655780601f10610e3a57610100808354040283529160200191610e65565b820191906000526020600020905b815481529060010190602001808311610e4857829003601f168201915b50505050508152602001600282018054610e7e906120d0565b80601f0160208091040260200160405190810160405280929190818152602001828054610eaa906120d0565b8015610ef75780601f10610ecc57610100808354040283529160200191610ef7565b820191906000526020600020905b815481529060010190602001808311610eda57829003601f168201915b50505050508152602001600382018054610f10906120d0565b80601f0160208091040260200160405190810160405280929190818152602001828054610f3c906120d0565b8015610f895780601f10610f5e57610100808354040283529160200191610f89565b820191906000526020600020905b815481529060010190602001808311610f6c57829003601f168201915b5050505050815260200160048201548152505081526020019060010190610d27565b50505050915050919050565b60005b600160003373ffffffffffffffffffffffffffffffffffffffff1673ffffffffffffffffffffffffffffffffffffffff168152602001908152602001600020805490508110156115985760006110fa83600160003373ffffffffffffffffffffffffffffffffffffffff1673ffffffffffffffffffffffffffffffffffffffff168152602001908152602001600020848154811061105b5761105a612072565b5b90600052602060002090600202016001018054611077906120d0565b80601f01602080910402602001604051908101604052809291908181526020018280546110a3906120d0565b80156110f05780601f106110c5576101008083540402835291602001916110f0565b820191906000526020600020905b8154815290600101906020018083116110d357829003601f168201915b505050505061159d565b9050605a811061158457600083600160003373ffffffffffffffffffffffffffffffffffffffff1673ffffffffffffffffffffffffffffffffffffffff168152602001908152602001600020848154811061115857611157612072565b5b906000526020600020906002020160010160405160200161117a9291906127e3565b604051602081830303815290604052805190602001209050600260003373ffffffffffffffffffffffffffffffffffffffff1673ffffffffffffffffffffffffffffffffffffffff16815260200190815260200160002060008281526020019081526020016000206040518060a00160405280878152602001600160003373ffffffffffffffffffffffffffffffffffffffff1673ffffffffffffffffffffffffffffffffffffffff168152602001908152602001600020868154811061124457611243612072565b5b90600052602060002090600202016000018054611260906120d0565b80601f016020809104026020016040519081016040528092919081815260200182805461128c906120d0565b80156112d95780601f106112ae576101008083540402835291602001916112d9565b820191906000526020600020905b8154815290600101906020018083116112bc57829003601f168201915b50505050508152602001868152602001600160003373ffffffffffffffffffffffffffffffffffffffff1673ffffffffffffffffffffffffffffffffffffffff168152602001908152602001600020868154811061133a57611339612072565b5b90600052602060002090600202016001018054611356906120d0565b80601f0160208091040260200160405190810160405280929190818152602001828054611382906120d0565b80156113cf5780601f106113a4576101008083540402835291602001916113cf565b820191906000526020600020905b8154815290600101906020018083116113b257829003601f168201915b50505050508152602001848152509080600181540180825580915050600190039060005260206000209060050201600090919091909150600082015181600001908161141b9190612502565b5060208201518160010190816114319190612502565b5060408201518160020190816114479190612502565b50606082015181600301908161145d9190612502565b506080820151816004015550503373ffffffffffffffffffffffffffffffffffffffff167f4f36aaa9bff24546c05809e30e330361c6b7865976dc375d7e66ac6bba2683d78387600160003373ffffffffffffffffffffffffffffffffffffffff1673ffffffffffffffffffffffffffffffffffffffff16815260200190815260200160002087815481106114f5576114f4612072565b5b906000526020600020906002020160000188600160003373ffffffffffffffffffffffffffffffffffffffff1673ffffffffffffffffffffffffffffffffffffffff168152602001908152602001600020898154811061155857611557612072565b5b906000526020600020906002020160010160405161157a95949392919061289a565b60405180910390a2505b508080611590906121df565b915050610fba565b505050565b600080839050600083905060008251905060008251905060006001836115c39190612909565b67ffffffffffffffff8111156115dc576115db611bc0565b5b60405190808252806020026020018201604052801561160f57816020015b60608152602001906001900390816115fa5790505b50905060005b6001846116229190612909565b8110156116ea576001836116369190612909565b67ffffffffffffffff81111561164f5761164e611bc0565b5b60405190808252806020026020018201604052801561167d5781602001602082028036833780820191505090505b5082828151811061169157611690612072565b5b6020026020010181905250808282815181106116b0576116af612072565b5b60200260200101516000815181106116cb576116ca612072565b5b60200260200101818152505080806116e2906121df565b915050611615565b5060005b6001836116fb9190612909565b81101561175057808260008151811061171757611716612072565b5b6020026020010151828151811061173157611730612072565b5b6020026020010181815250508080611748906121df565b9150506116ee565b506000600190505b838111611a03576000600190505b8381116119ef578560018261177b919061293d565b8151811061178c5761178b612072565b5b602001015160f81c60f81b7effffffffffffffffffffffffffffffffffffffffffffffffffffffffffffff1916876001846117c7919061293d565b815181106117d8576117d7612072565b5b602001015160f81c60f81b7effffffffffffffffffffffffffffffffffffffffffffffffffffffffffffff1916036118955782600183611818919061293d565b8151811061182957611828612072565b5b602002602001015160018261183e919061293d565b8151811061184f5761184e612072565b5b602002602001015183838151811061186a57611869612072565b5b6020026020010151828151811061188457611883612072565b5b6020026020010181815250506119dc565b60006001846001856118a7919061293d565b815181106118b8576118b7612072565b5b60200260200101516001846118cd919061293d565b815181106118de576118dd612072565b5b60200260200101516118f09190612909565b90506000600185600186611904919061293d565b8151811061191557611914612072565b5b6020026020010151848151811061192f5761192e612072565b5b60200260200101516119419190612909565b90506000600186868151811061195a57611959612072565b5b602002602001015160018661196f919061293d565b815181106119805761197f612072565b5b60200260200101516119929190612909565b905061199f838383611a78565b8686815181106119b2576119b1612072565b5b602002602001015185815181106119cc576119cb612072565b5b6020026020010181815250505050505b80806119e7906121df565b915050611766565b5080806119fb906121df565b915050611758565b5060006064611a128585611abf565b838681518110611a2557611a24612072565b5b60200260200101518581518110611a3f57611a3e612072565b5b6020026020010151611a5191906129a0565b6001611a5d919061293d565b611a6791906129d1565b905080965050505050505092915050565b6000828411158015611a8a5750818411155b15611a9757839050611ab8565b838311158015611aa75750818311155b15611ab457829050611ab8565b8190505b9392505050565b6000818311611ace5781611ad0565b825b905092915050565b508054611ae4906120d0565b6000825580601f10611af65750611b15565b601f016020900490600052602060002090810190611b149190611b18565b5b50565b5b80821115611b31576000816000905550600101611b19565b5090565b600073ffffffffffffffffffffffffffffffffffffffff82169050919050565b6000611b6082611b35565b9050919050565b611b7081611b55565b82525050565b6000602082019050611b8b6000830184611b67565b92915050565b6000604051905090565b600080fd5b600080fd5b600080fd5b600080fd5b6000601f19601f8301169050919050565b7f4e487b7100000000000000000000000000000000000000000000000000000000600052604160045260246000fd5b611bf882611baf565b810181811067ffffffffffffffff82111715611c1757611c16611bc0565b5b80604052505050565b6000611c2a611b91565b9050611c368282611bef565b919050565b600067ffffffffffffffff821115611c5657611c55611bc0565b5b611c5f82611baf565b9050602081019050919050565b82818337600083830152505050565b6000611c8e611c8984611c3b565b611c20565b905082815260208101848484011115611caa57611ca9611baa565b5b611cb5848285611c6c565b509392505050565b600082601f830112611cd257611cd1611ba5565b5b8135611ce2848260208601611c7b565b91505092915050565b600060208284031215611d0157611d00611b9b565b5b600082013567ffffffffffffffff811115611d1f57611d1e611ba0565b5b611d2b84828501611cbd565b91505092915050565b600081519050919050565b600082825260208201905092915050565b60005b83811015611d6e578082015181840152602081019050611d53565b60008484015250505050565b6000611d8582611d34565b611d8f8185611d3f565b9350611d9f818560208601611d50565b611da881611baf565b840191505092915050565b60006020820190508181036000830152611dcd8184611d7a565b905092915050565b60008060408385031215611dec57611deb611b9b565b5b600083013567ffffffffffffffff811115611e0a57611e09611ba0565b5b611e1685828601611cbd565b925050602083013567ffffffffffffffff811115611e3757611e36611ba0565b5b611e4385828601611cbd565b9150509250929050565b600081519050919050565b600082825260208201905092915050565b6000819050602082019050919050565b600082825260208201905092915050565b6000611e9582611d34565b611e9f8185611e79565b9350611eaf818560208601611d50565b611eb881611baf565b840191505092915050565b6000819050919050565b611ed681611ec3565b82525050565b600060a0830160008301518482036000860152611ef98282611e8a565b91505060208301518482036020860152611f138282611e8a565b91505060408301518482036040860152611f2d8282611e8a565b91505060608301518482036060860152611f478282611e8a565b9150506080830151611f5c6080860182611ecd565b508091505092915050565b6000611f738383611edc565b905092915050565b6000602082019050919050565b6000611f9382611e4d565b611f9d8185611e58565b935083602082028501611faf85611e69565b8060005b85811015611feb5784840389528151611fcc8582611f67565b9450611fd783611f7b565b925060208a01995050600181019050611fb3565b50829750879550505050505092915050565b600060208201905081810360008301526120178184611f88565b905092915050565b600081905092915050565b600061203582611d34565b61203f818561201f565b935061204f818560208601611d50565b80840191505092915050565b6000612067828461202a565b915081905092915050565b7f4e487b7100000000000000000000000000000000000000000000000000000000600052603260045260246000fd5b7f4e487b7100000000000000000000000000000000000000000000000000000000600052602260045260246000fd5b600060028204905060018216806120e857607f821691505b6020821081036120fb576120fa6120a1565b5b50919050565b60008190508160005260206000209050919050565b60008154612123816120d0565b61212d818661201f565b94506001821660008114612148576001811461215d57612190565b60ff1983168652811515820286019350612190565b61216685612101565b60005b8381101561218857815481890152600182019150602081019050612169565b838801955050505b50505092915050565b60006121a58284612116565b915081905092915050565b7f4e487b7100000000000000000000000000000000000000000000000000000000600052601160045260246000fd5b60006121ea82611ec3565b91507fffffffffffffffffffffffffffffffffffffffffffffffffffffffffffffffff820361221c5761221b6121b0565b5b600182019050919050565b7f444e412066696c65206e6f7420666f756e642e00000000000000000000000000600082015250565b600061225d601383611d3f565b915061226882612227565b602082019050919050565b6000602082019050818103600083015261228c81612250565b9050919050565b7f444e41206e616d652063616e6e6f7420626520656d7074792e00000000000000600082015250565b60006122c9601983611d3f565b91506122d482612293565b602082019050919050565b600060208201905081810360008301526122f8816122bc565b9050919050565b7f4950465320686173682063616e6e6f7420626520656d7074792e000000000000600082015250565b6000612335601a83611d3f565b9150612340826122ff565b602082019050919050565b6000602082019050818103600083015261236481612328565b9050919050565b60006020601f8301049050919050565b600082821b905092915050565b6000600883026123b87fffffffffffffffffffffffffffffffffffffffffffffffffffffffffffffffff8261237b565b6123c2868361237b565b95508019841693508086168417925050509392505050565b6000819050919050565b60006123ff6123fa6123f584611ec3565b6123da565b611ec3565b9050919050565b6000819050919050565b612419836123e4565b61242d61242582612406565b848454612388565b825550505050565b600090565b612442612435565b61244d818484612410565b505050565b5b818110156124715761246660008261243a565b600181019050612453565b5050565b601f8211156124b65761248781612101565b6124908461236b565b8101602085101561249f578190505b6124b36124ab8561236b565b830182612452565b50505b505050565b600082821c905092915050565b60006124d9600019846008026124bb565b1980831691505092915050565b60006124f283836124c8565b9150826002028217905092915050565b61250b82611d34565b67ffffffffffffffff81111561252457612523611bc0565b5b61252e82546120d0565b612539828285612475565b600060209050601f83116001811461256c576000841561255a578287015190505b61256485826124e6565b8655506125cc565b601f19841661257a86612101565b60005b828110156125a25784890151825560018201915060208501945060208101905061257d565b868310156125bf57848901516125bb601f8916826124c8565b8355505b6001600288020188555050505b505050505050565b600060408201905081810360008301526125ee8185611d7a565b905081810360208301526126028184611d7a565b90509392505050565b7f4f6e6c792074686520636f6e7472616374206f776e65722063616e207065726660008201527f6f726d207468697320616374696f6e2e00000000000000000000000000000000602082015250565b6000612667603083611d3f565b91506126728261260b565b604082019050919050565b600060208201905081810360008301526126968161265a565b9050919050565b60006126a98285612116565b91506126b58284612116565b91508190509392505050565b60006126cd828561202a565b91506126d9828461202a565b91508190509392505050565b7f444e412066696c652068617320616c7265616479206265656e2075706c6f616460008201527f65642e0000000000000000000000000000000000000000000000000000000000602082015250565b6000612741602383611d3f565b915061274c826126e5565b604082019050919050565b6000602082019050818103600083015261277081612734565b9050919050565b7f444e412069706673486173682063616e6e6f7420626520656d7074792e000000600082015250565b60006127ad601d83611d3f565b91506127b882612777565b602082019050919050565b600060208201905081810360008301526127dc816127a0565b9050919050565b60006127ef828561202a565b91506127fb8284612116565b91508190509392505050565b61281081611ec3565b82525050565b60008154612823816120d0565b61282d8186611d3f565b94506001821660008114612848576001811461285e57612891565b60ff198316865281151560200286019350612891565b61286785612101565b60005b838110156128895781548189015260018201915060208101905061286a565b808801955050505b50505092915050565b600060a0820190506128af6000830188612807565b81810360208301526128c18187611d7a565b905081810360408301526128d58186612816565b905081810360608301526128e98185611d7a565b905081810360808301526128fd8184612816565b90509695505050505050565b600061291482611ec3565b915061291f83611ec3565b9250828201905080821115612937576129366121b0565b5b92915050565b600061294882611ec3565b915061295383611ec3565b925082820390508181111561296b5761296a6121b0565b5b92915050565b7f4e487b7100000000000000000000000000000000000000000000000000000000600052601260045260246000fd5b60006129ab82611ec3565b91506129b683611ec3565b9250826129c6576129c5612971565b5b828204905092915050565b60006129dc82611ec3565b91506129e783611ec3565b92508282026129f581611ec3565b91508282048414831517612a0c57612a0b6121b0565b5b509291505056fea26469706673582212203b7dadcac29549ac24d35e42067bb757976fa6e8b7654b6a80d540f4de3e109b64736f6c63430008130033",
  "immutableReferences": {},
  "source": "//This code has the access for only owner\r\n// this code get only csv file\r\n// SPDX-License-Identifier: MIT\r\npragma solidity ^0.8.19;\r\n\r\n//import \"@openzeppelin/contracts/token/ERC721/ERC721.sol\";\r\n\r\ncontract cont{\r\n  struct DNA {\r\n        string name;\r\n        string ipfsHash;\r\n    }\r\n\r\n    struct SimilarDNA {\r\n        string name1;\r\n        string name2;\r\n        string ipfsHash1;\r\n        string ipfsHash2;\r\n        uint256 similarityPercentage;\r\n    }\r\n\r\n    address public owner;\r\n    mapping(address => DNA[]) private dnaRegistry;\r\n    mapping(address => mapping(bytes32 => SimilarDNA[])) private similarFiles;\r\n\r\n    event DNAUploaded(\r\n        address indexed uploader,\r\n        string name,\r\n        string ipfsHash\r\n    );\r\n\r\n    event DNAUpdated(\r\n        address indexed updater,\r\n        string name,\r\n        string ipfsHash\r\n    );\r\n\r\n    event DNARemoved(\r\n        address indexed remover,\r\n        string ipfsHash\r\n    );\r\n\r\n    event FamilyMatch(\r\n        address indexed user,\r\n        uint256 similarityScore,\r\n        string name1,\r\n        string name2,\r\n        string ipfsHash1,\r\n        string ipfsHash2\r\n    );\r\n\r\n    constructor() {\r\n        owner = msg.sender;\r\n    }\r\n\r\n    // The DNARegistry contract allows users to upload and manage DNA files associated with their addresses.\r\n    // It also provides a similarity analysis between DNA files for potential family matches.\r\n\r\n    modifier onlyOwner() {\r\n        require(msg.sender == owner, \"Only the contract owner can perform this action.\");\r\n        _;\r\n    }\r\n\r\n    // Uploads a single DNA file with the specified name and IPFS hash for the contract owner.\r\n    function uploadSingleDNA(string memory _name, string memory _ipfsHash) public onlyOwner {\r\n        require(bytes(_name).length > 0, \"DNA name cannot be empty.\");\r\n        require(bytes(_ipfsHash).length > 0, \"IPFS hash cannot be empty.\");\r\n\r\n        // Check if the DNA file has already been uploaded by comparing the name and IPFS hash.\r\n        for (uint256 i = 0; i < dnaRegistry[msg.sender].length; i++) {\r\n            require(\r\n                keccak256(abi.encodePacked(_name, _ipfsHash)) !=\r\n                    keccak256(abi.encodePacked(dnaRegistry[msg.sender][i].name, dnaRegistry[msg.sender][i].ipfsHash)),\r\n                \"DNA file has already been uploaded.\"\r\n            );\r\n        }\r\n\r\n        // Add the DNA file to the dnaRegistry mapping.\r\n        dnaRegistry[msg.sender].push(DNA({ name: _name, ipfsHash: _ipfsHash }));\r\n\r\n        // Perform similarity analysis to check for potential family matches.\r\n        checkFamilyMatches(_name, _ipfsHash);\r\n\r\n        emit DNAUploaded(msg.sender, _name, _ipfsHash);\r\n    }\r\n\r\n    // Performs similarity analysis between the uploaded DNA file and the existing DNA files of the owner.\r\n    function checkFamilyMatches(string memory _name, string memory _ipfsHash) private {\r\n        for (uint256 i = 0; i < dnaRegistry[msg.sender].length; i++) {\r\n            // Calculate the similarity score between the uploaded DNA file and each existing DNA file.\r\n            uint256 similarityScore = calculateSimilarityScore(_ipfsHash, dnaRegistry[msg.sender][i].ipfsHash);\r\n\r\n            // If the similarity score is above the threshold (90%), record a family match.\r\n            if (similarityScore >= 90) {\r\n                bytes32 hash = keccak256(abi.encodePacked(_ipfsHash, dnaRegistry[msg.sender][i].ipfsHash));\r\n                similarFiles[msg.sender][hash].push(\r\n                    SimilarDNA({\r\n                        name1: _name,\r\n                        name2: dnaRegistry[msg.sender][i].name,\r\n                        ipfsHash1: _ipfsHash,\r\n                        ipfsHash2: dnaRegistry[msg.sender][i].ipfsHash,\r\n                        similarityPercentage: similarityScore\r\n                    })\r\n                );\r\n                emit FamilyMatch(\r\n                    msg.sender,\r\n                    similarityScore,\r\n                    _name,\r\n                    dnaRegistry[msg.sender][i].name,\r\n                    _ipfsHash,\r\n                    dnaRegistry[msg.sender][i].ipfsHash\r\n                );\r\n            }\r\n        }\r\n    }\r\n\r\n    // Retrieves the IPFS hash of a DNA file based on its name for the caller.\r\n    function retrieveDNA(string memory _name) public view returns (string memory) {\r\n        for (uint256 i = 0; i < dnaRegistry[msg.sender].length; i++) {\r\n            if (keccak256(abi.encodePacked(dnaRegistry[msg.sender][i].name)) == keccak256(abi.encodePacked(_name))) {\r\n                return dnaRegistry[msg.sender][i].ipfsHash;\r\n            }\r\n        }\r\n        revert(\"DNA file not found.\");\r\n    }\r\n\r\n    // Removes a DNA file from the dnaRegistry based on its IPFS hash for the caller.\r\n    function removeDNA(string memory _ipfsHash) public {\r\n        require(bytes(_ipfsHash).length > 0, \"DNA ipfsHash cannot be empty.\");\r\n\r\n        for (uint256 i = 0; i < dnaRegistry[msg.sender].length; i++) {\r\n            if (keccak256(abi.encodePacked(dnaRegistry[msg.sender][i].ipfsHash)) == keccak256(abi.encodePacked(_ipfsHash))) {\r\n                delete dnaRegistry[msg.sender][i];\r\n                emit DNARemoved(msg.sender, _ipfsHash);\r\n                return;\r\n            }\r\n        }\r\n        revert(\"DNA file not found.\");\r\n    }\r\n\r\n    // Updates the IPFS hash of a DNA file based on its name for the caller.\r\n    function updateDNA(string memory _name, string memory _ipfsHash) public {\r\n        require(bytes(_name).length > 0, \"DNA name cannot be empty.\");\r\n        require(bytes(_ipfsHash).length > 0, \"IPFS hash cannot be empty.\");\r\n\r\n        for (uint256 i = 0; i < dnaRegistry[msg.sender].length; i++) {\r\n            if (keccak256(abi.encodePacked(dnaRegistry[msg.sender][i].name)) == keccak256(abi.encodePacked(_name))) {\r\n                dnaRegistry[msg.sender][i].ipfsHash = _ipfsHash;\r\n                emit DNAUpdated(msg.sender, _name, _ipfsHash);\r\n                return;\r\n            }\r\n        }\r\n        revert(\"DNA file not found.\");\r\n    }\r\n\r\n    // Retrieves similar DNA files based on the given IPFS hash.\r\n    function getSimilarFiles(string memory _ipfsHash) public view returns (SimilarDNA[] memory) {\r\n        bytes32 hash = keccak256(abi.encodePacked(_ipfsHash));\r\n        return similarFiles[msg.sender][hash];\r\n    }\r\n\r\n    // Calculates the similarity score between two DNA sequences using the Levenshtein distance algorithm.\r\n    function calculateSimilarityScore(string memory _ipfsHash1, string memory _ipfsHash2) private pure returns (uint256) {\r\n        bytes memory sequence1 = bytes(_ipfsHash1);\r\n        bytes memory sequence2 = bytes(_ipfsHash2);\r\n\r\n        uint256 m = sequence1.length;\r\n        uint256 n = sequence2.length;\r\n\r\n        uint256[][] memory scoreMatrix = new uint256[][](m + 1);\r\n\r\n        // Initialize the score matrix.\r\n        for (uint256 i = 0; i < m + 1; i++) {\r\n            scoreMatrix[i] = new uint256[](n + 1);\r\n            scoreMatrix[i][0] = i;\r\n        }\r\n\r\n        for (uint256 j = 0; j < n + 1; j++) {\r\n            scoreMatrix[0][j] = j;\r\n        }\r\n\r\n        // Compute the Levenshtein distance and populate the score matrix.\r\n        for (uint256 i = 1; i <= m; i++) {\r\n            for (uint256 j = 1; j <= n; j++) {\r\n                if (sequence1[i - 1] == sequence2[j - 1]) {\r\n                    scoreMatrix[i][j] = scoreMatrix[i - 1][j - 1];\r\n                } else {\r\n                    uint256 substitution = scoreMatrix[i - 1][j - 1] + 1;\r\n                    uint256 deletion = scoreMatrix[i - 1][j] + 1;\r\n                    uint256 insertion = scoreMatrix[i][j - 1] + 1;\r\n                    scoreMatrix[i][j] = min(substitution, deletion, insertion);\r\n                }\r\n            }\r\n        }\r\n\r\n        // Calculate the similarity score based on the Levenshtein distance.\r\n        uint256 similarityScore = (1 - (scoreMatrix[m][n] / max(m, n))) * 100;\r\n\r\n        return similarityScore;\r\n    }\r\n\r\n    // Returns the minimum of three numbers.\r\n    function min(uint256 a, uint256 b, uint256 c) private pure returns (uint256) {\r\n        if (a <= b && a <= c) {\r\n            return a;\r\n        }\r\n        if (b <= a && b <= c) {\r\n            return b;\r\n        }\r\n        return c;\r\n    }\r\n\r\n    // Returns the maximum of two numbers.\r\n    function max(uint256 a, uint256 b) private pure returns (uint256) {\r\n        return a > b ? a : b;\r\n    }\r\n}",
  "sourcePath": "C:\\Users\\drsar\\Downloads\\React-PHP - Copy\\React-PHP - Copy\\src\\components\\AppFun\\contracts\\cont.sol",
  "compiler": {
    "name": "solc",
    "version": "0.8.19+commit.7dd6d404.Emscripten.clang"
  },
  "schemaVersion": "3.4.13",
  "updatedAt": "2023-06-21T19:22:36.311Z",
  "networkType": "ethereum",
  "devdoc": {
    "kind": "dev",
    "methods": {},
    "version": 1
  },
  "userdoc": {
    "kind": "user",
    "methods": {},
    "version": 1
  }
}