{
  "contractName": "cont",
  "abi": [
    {
      "inputs": [],
      "stateMutability": "nonpayable",
      "type": "constructor"
    },
    {
      "anonymous": false,
      "inputs": [
        {
          "indexed": true,
          "internalType": "address",
          "name": "remover",
          "type": "address"
        },
        {
          "indexed": false,
          "internalType": "string",
          "name": "name",
          "type": "string"
        }
      ],
      "name": "DNARemoved",
      "type": "event"
    },
    {
      "anonymous": false,
      "inputs": [
        {
          "indexed": true,
          "internalType": "address",
          "name": "updater",
          "type": "address"
        },
        {
          "indexed": false,
          "internalType": "string",
          "name": "name",
          "type": "string"
        },
        {
          "indexed": false,
          "internalType": "string",
          "name": "ipfsHash",
          "type": "string"
        }
      ],
      "name": "DNAUpdated",
      "type": "event"
    },
    {
      "anonymous": false,
      "inputs": [
        {
          "indexed": true,
          "internalType": "address",
          "name": "uploader",
          "type": "address"
        },
        {
          "indexed": false,
          "internalType": "string",
          "name": "name",
          "type": "string"
        },
        {
          "indexed": false,
          "internalType": "string",
          "name": "ipfsHash",
          "type": "string"
        }
      ],
      "name": "DNAUploaded",
      "type": "event"
    },
    {
      "anonymous": false,
      "inputs": [
        {
          "indexed": true,
          "internalType": "address",
          "name": "user",
          "type": "address"
        },
        {
          "indexed": false,
          "internalType": "uint256",
          "name": "similarityScore",
          "type": "uint256"
        },
        {
          "indexed": false,
          "internalType": "string",
          "name": "name1",
          "type": "string"
        },
        {
          "indexed": false,
          "internalType": "string",
          "name": "name2",
          "type": "string"
        },
        {
          "indexed": false,
          "internalType": "string",
          "name": "ipfsHash1",
          "type": "string"
        },
        {
          "indexed": false,
          "internalType": "string",
          "name": "ipfsHash2",
          "type": "string"
        }
      ],
      "name": "FamilyMatch",
      "type": "event"
    },
    {
      "inputs": [],
      "name": "owner",
      "outputs": [
        {
          "internalType": "address",
          "name": "",
          "type": "address"
        }
      ],
      "stateMutability": "view",
      "type": "function",
      "constant": true
    },
    {
      "inputs": [
        {
          "internalType": "string",
          "name": "_name",
          "type": "string"
        },
        {
          "internalType": "string",
          "name": "_ipfsHash",
          "type": "string"
        }
      ],
      "name": "uploadSingleDNA",
      "outputs": [],
      "stateMutability": "nonpayable",
      "type": "function"
    },
    {
      "inputs": [
        {
          "internalType": "string",
          "name": "_name",
          "type": "string"
        }
      ],
      "name": "retrieveDNA",
      "outputs": [
        {
          "internalType": "string",
          "name": "",
          "type": "string"
        }
      ],
      "stateMutability": "view",
      "type": "function",
      "constant": true
    },
    {
      "inputs": [
        {
          "internalType": "string",
          "name": "_name",
          "type": "string"
        },
        {
          "internalType": "string",
          "name": "_ipfsHash",
          "type": "string"
        }
      ],
      "name": "updateDNA",
      "outputs": [],
      "stateMutability": "nonpayable",
      "type": "function"
    },
    {
      "inputs": [
        {
          "internalType": "string",
          "name": "_name",
          "type": "string"
        }
      ],
      "name": "removeDNA",
      "outputs": [],
      "stateMutability": "nonpayable",
      "type": "function"
    },
    {
      "inputs": [
        {
          "internalType": "string",
          "name": "_ipfsHash",
          "type": "string"
        }
      ],
      "name": "getSimilarFiles",
      "outputs": [
        {
          "components": [
            {
              "internalType": "string",
              "name": "name1",
              "type": "string"
            },
            {
              "internalType": "string",
              "name": "name2",
              "type": "string"
            },
            {
              "internalType": "string",
              "name": "ipfsHash1",
              "type": "string"
            },
            {
              "internalType": "string",
              "name": "ipfsHash2",
              "type": "string"
            },
            {
              "internalType": "uint256",
              "name": "similarityPercentage",
              "type": "uint256"
            }
          ],
          "internalType": "struct cont.SimilarDNA[]",
          "name": "",
          "type": "tuple[]"
        }
      ],
      "stateMutability": "view",
      "type": "function",
      "constant": true
    }
  ],
  "bytecode": "0x608060405234801561001057600080fd5b50336000806101000a81548173ffffffffffffffffffffffffffffffffffffffff021916908373ffffffffffffffffffffffffffffffffffffffff160217905550612a2a806100606000396000f3fe608060405234801561001057600080fd5b50600436106100625760003560e01c80638da5cb5b146100675780639dcebc6714610085578063a5e39b80146100b5578063c191e639146100d1578063d6bd7b1a146100ed578063de606e7c14610109575b600080fd5b61006f610139565b60405161007c9190611b57565b60405180910390f35b61009f600480360381019061009a9190611ccc565b61015d565b6040516100ac9190611d94565b60405180910390f35b6100cf60048036038101906100ca9190611db6565b6103a7565b005b6100eb60048036038101906100e69190611db6565b610649565b005b61010760048036038101906101029190611ccc565b610ff5565b005b610123600480360381019061011e9190611ccc565b611262565b6040516101309190611fde565b60405180910390f35b60008054906101000a900473ffffffffffffffffffffffffffffffffffffffff1681565b606060005b600160003373ffffffffffffffffffffffffffffffffffffffff1673ffffffffffffffffffffffffffffffffffffffff1681526020019081526020016000208054905081101561036657826040516020016101bd919061203c565b60405160208183030381529060405280519060200120600160003373ffffffffffffffffffffffffffffffffffffffff1673ffffffffffffffffffffffffffffffffffffffff168152602001908152602001600020828154811061022457610223612053565b5b9060005260206000209060020201600001604051602001610245919061217a565b604051602081830303815290604052805190602001200361035357600160003373ffffffffffffffffffffffffffffffffffffffff1673ffffffffffffffffffffffffffffffffffffffff16815260200190815260200160002081815481106102b1576102b0612053565b5b906000526020600020906002020160010180546102cd906120b1565b80601f01602080910402602001604051908101604052809291908181526020018280546102f9906120b1565b80156103465780601f1061031b57610100808354040283529160200191610346565b820191906000526020600020905b81548152906001019060200180831161032957829003601f168201915b50505050509150506103a2565b808061035e906121c0565b915050610162565b506040517f08c379a000000000000000000000000000000000000000000000000000000000815260040161039990612254565b60405180910390fd5b919050565b60008251116103eb576040517f08c379a00000000000000000000000000000000000000000000000000000000081526004016103e2906122c0565b60405180910390fd5b600081511161042f576040517f08c379a00000000000000000000000000000000000000000000000000000000081526004016104269061232c565b60405180910390fd5b60005b600160003373ffffffffffffffffffffffffffffffffffffffff1673ffffffffffffffffffffffffffffffffffffffff16815260200190815260200160002080549050811015610609578260405160200161048d919061203c565b60405160208183030381529060405280519060200120600160003373ffffffffffffffffffffffffffffffffffffffff1673ffffffffffffffffffffffffffffffffffffffff16815260200190815260200160002082815481106104f4576104f3612053565b5b9060005260206000209060020201600001604051602001610515919061217a565b60405160208183030381529060405280519060200120036105f65781600160003373ffffffffffffffffffffffffffffffffffffffff1673ffffffffffffffffffffffffffffffffffffffff168152602001908152602001600020828154811061058257610581612053565b5b9060005260206000209060020201600101908161059f91906124e3565b503373ffffffffffffffffffffffffffffffffffffffff167f7be6ede30a0564336582641b40bab696b0b2f8ad1f28589d92d935003285fbdb84846040516105e89291906125b5565b60405180910390a250610645565b8080610601906121c0565b915050610432565b506040517f08c379a000000000000000000000000000000000000000000000000000000000815260040161063c90612254565b60405180910390fd5b5050565b60008054906101000a900473ffffffffffffffffffffffffffffffffffffffff1673ffffffffffffffffffffffffffffffffffffffff163373ffffffffffffffffffffffffffffffffffffffff16146106d7576040517f08c379a00000000000000000000000000000000000000000000000000000000081526004016106ce9061265e565b60405180910390fd5b600082511161071b576040517f08c379a0000000000000000000000000000000000000000000000000000000008152600401610712906126ca565b60405180910390fd5b600081511161075f576040517f08c379a00000000000000000000000000000000000000000000000000000000081526004016107569061232c565b60405180910390fd5b60005b600160003373ffffffffffffffffffffffffffffffffffffffff1673ffffffffffffffffffffffffffffffffffffffff1681526020019081526020016000208054905081101561091357600160003373ffffffffffffffffffffffffffffffffffffffff1673ffffffffffffffffffffffffffffffffffffffff16815260200190815260200160002081815481106107fd576107fc612053565b5b9060005260206000209060020201600001600160003373ffffffffffffffffffffffffffffffffffffffff1673ffffffffffffffffffffffffffffffffffffffff168152602001908152602001600020828154811061085f5761085e612053565b5b90600052602060002090600202016001016040516020016108819291906126ea565b6040516020818303038152906040528051906020012083836040516020016108aa92919061270e565b6040516020818303038152906040528051906020012003610900576040517f08c379a00000000000000000000000000000000000000000000000000000000081526004016108f7906127a4565b60405180910390fd5b808061090b906121c0565b915050610762565b50600160003373ffffffffffffffffffffffffffffffffffffffff1673ffffffffffffffffffffffffffffffffffffffff168152602001908152602001600020604051806040016040528084815260200183815250908060018154018082558091505060019003906000526020600020906002020160009091909190915060008201518160000190816109a691906124e3565b5060208201518160010190816109bc91906124e3565b50505060005b600160003373ffffffffffffffffffffffffffffffffffffffff1673ffffffffffffffffffffffffffffffffffffffff16815260200190815260200160002080549050811015610fa0576000610b0283600160003373ffffffffffffffffffffffffffffffffffffffff1673ffffffffffffffffffffffffffffffffffffffff1681526020019081526020016000208481548110610a6357610a62612053565b5b90600052602060002090600202016001018054610a7f906120b1565b80601f0160208091040260200160405190810160405280929190818152602001828054610aab906120b1565b8015610af85780601f10610acd57610100808354040283529160200191610af8565b820191906000526020600020905b815481529060010190602001808311610adb57829003601f168201915b505050505061158f565b9050605a8110610f8c57600083600160003373ffffffffffffffffffffffffffffffffffffffff1673ffffffffffffffffffffffffffffffffffffffff1681526020019081526020016000208481548110610b6057610b5f612053565b5b9060005260206000209060020201600101604051602001610b829291906127c4565b604051602081830303815290604052805190602001209050600260003373ffffffffffffffffffffffffffffffffffffffff1673ffffffffffffffffffffffffffffffffffffffff16815260200190815260200160002060008281526020019081526020016000206040518060a00160405280878152602001600160003373ffffffffffffffffffffffffffffffffffffffff1673ffffffffffffffffffffffffffffffffffffffff1681526020019081526020016000208681548110610c4c57610c4b612053565b5b90600052602060002090600202016000018054610c68906120b1565b80601f0160208091040260200160405190810160405280929190818152602001828054610c94906120b1565b8015610ce15780601f10610cb657610100808354040283529160200191610ce1565b820191906000526020600020905b815481529060010190602001808311610cc457829003601f168201915b50505050508152602001868152602001600160003373ffffffffffffffffffffffffffffffffffffffff1673ffffffffffffffffffffffffffffffffffffffff1681526020019081526020016000208681548110610d4257610d41612053565b5b90600052602060002090600202016001018054610d5e906120b1565b80601f0160208091040260200160405190810160405280929190818152602001828054610d8a906120b1565b8015610dd75780601f10610dac57610100808354040283529160200191610dd7565b820191906000526020600020905b815481529060010190602001808311610dba57829003601f168201915b505050505081526020018481525090806001815401808255809150506001900390600052602060002090600502016000909190919091506000820151816000019081610e2391906124e3565b506020820151816001019081610e3991906124e3565b506040820151816002019081610e4f91906124e3565b506060820151816003019081610e6591906124e3565b506080820151816004015550503373ffffffffffffffffffffffffffffffffffffffff167f4f36aaa9bff24546c05809e30e330361c6b7865976dc375d7e66ac6bba2683d78387600160003373ffffffffffffffffffffffffffffffffffffffff1673ffffffffffffffffffffffffffffffffffffffff1681526020019081526020016000208781548110610efd57610efc612053565b5b906000526020600020906002020160000188600160003373ffffffffffffffffffffffffffffffffffffffff1673ffffffffffffffffffffffffffffffffffffffff1681526020019081526020016000208981548110610f6057610f5f612053565b5b9060005260206000209060020201600101604051610f8295949392919061287b565b60405180910390a2505b508080610f98906121c0565b9150506109c2565b503373ffffffffffffffffffffffffffffffffffffffff167ffce61b60e7b0251aee9dbb4ba7f58a6b9bcfa9d4c9440b404e2dd81273eb52d88383604051610fe99291906125b5565b60405180910390a25050565b6000815111611039576040517f08c379a0000000000000000000000000000000000000000000000000000000008152600401611030906122c0565b60405180910390fd5b60005b600160003373ffffffffffffffffffffffffffffffffffffffff1673ffffffffffffffffffffffffffffffffffffffff168152602001908152602001600020805490508110156112235781604051602001611097919061203c565b60405160208183030381529060405280519060200120600160003373ffffffffffffffffffffffffffffffffffffffff1673ffffffffffffffffffffffffffffffffffffffff16815260200190815260200160002082815481106110fe576110fd612053565b5b906000526020600020906002020160000160405160200161111f919061217a565b604051602081830303815290604052805190602001200361121057600160003373ffffffffffffffffffffffffffffffffffffffff1673ffffffffffffffffffffffffffffffffffffffff168152602001908152602001600020818154811061118b5761118a612053565b5b9060005260206000209060020201600080820160006111aa9190611ab9565b6001820160006111ba9190611ab9565b50503373ffffffffffffffffffffffffffffffffffffffff167fc7544131f9ff034cb23e857e31328b0f2f2aac6cf911d1034af732a350afa4ac836040516112029190611d94565b60405180910390a25061125f565b808061121b906121c0565b91505061103c565b506040517f08c379a000000000000000000000000000000000000000000000000000000000815260040161125690612254565b60405180910390fd5b50565b6060600082604051602001611277919061203c565b604051602081830303815290604052805190602001209050600260003373ffffffffffffffffffffffffffffffffffffffff1673ffffffffffffffffffffffffffffffffffffffff1681526020019081526020016000206000828152602001908152602001600020805480602002602001604051908101604052809291908181526020016000905b8282101561158357838290600052602060002090600502016040518060a0016040529081600082018054611332906120b1565b80601f016020809104026020016040519081016040528092919081815260200182805461135e906120b1565b80156113ab5780601f10611380576101008083540402835291602001916113ab565b820191906000526020600020905b81548152906001019060200180831161138e57829003601f168201915b505050505081526020016001820180546113c4906120b1565b80601f01602080910402602001604051908101604052809291908181526020018280546113f0906120b1565b801561143d5780601f106114125761010080835404028352916020019161143d565b820191906000526020600020905b81548152906001019060200180831161142057829003601f168201915b50505050508152602001600282018054611456906120b1565b80601f0160208091040260200160405190810160405280929190818152602001828054611482906120b1565b80156114cf5780601f106114a4576101008083540402835291602001916114cf565b820191906000526020600020905b8154815290600101906020018083116114b257829003601f168201915b505050505081526020016003820180546114e8906120b1565b80601f0160208091040260200160405190810160405280929190818152602001828054611514906120b1565b80156115615780601f1061153657610100808354040283529160200191611561565b820191906000526020600020905b81548152906001019060200180831161154457829003601f168201915b50505050508152602001600482015481525050815260200190600101906112ff565b50505050915050919050565b600080839050600083905060008251905060008251905060006001836115b591906128ea565b67ffffffffffffffff8111156115ce576115cd611ba1565b5b60405190808252806020026020018201604052801561160157816020015b60608152602001906001900390816115ec5790505b50905060005b60018461161491906128ea565b8110156116dc5760018361162891906128ea565b67ffffffffffffffff81111561164157611640611ba1565b5b60405190808252806020026020018201604052801561166f5781602001602082028036833780820191505090505b5082828151811061168357611682612053565b5b6020026020010181905250808282815181106116a2576116a1612053565b5b60200260200101516000815181106116bd576116bc612053565b5b60200260200101818152505080806116d4906121c0565b915050611607565b5060005b6001836116ed91906128ea565b81101561174257808260008151811061170957611708612053565b5b6020026020010151828151811061172357611722612053565b5b602002602001018181525050808061173a906121c0565b9150506116e0565b506000600190505b8381116119f5576000600190505b8381116119e1578560018261176d919061291e565b8151811061177e5761177d612053565b5b602001015160f81c60f81b7effffffffffffffffffffffffffffffffffffffffffffffffffffffffffffff1916876001846117b9919061291e565b815181106117ca576117c9612053565b5b602001015160f81c60f81b7effffffffffffffffffffffffffffffffffffffffffffffffffffffffffffff191603611887578260018361180a919061291e565b8151811061181b5761181a612053565b5b6020026020010151600182611830919061291e565b8151811061184157611840612053565b5b602002602001015183838151811061185c5761185b612053565b5b6020026020010151828151811061187657611875612053565b5b6020026020010181815250506119ce565b6000600184600185611899919061291e565b815181106118aa576118a9612053565b5b60200260200101516001846118bf919061291e565b815181106118d0576118cf612053565b5b60200260200101516118e291906128ea565b905060006001856001866118f6919061291e565b8151811061190757611906612053565b5b6020026020010151848151811061192157611920612053565b5b602002602001015161193391906128ea565b90506000600186868151811061194c5761194b612053565b5b6020026020010151600186611961919061291e565b8151811061197257611971612053565b5b602002602001015161198491906128ea565b9050611991838383611a6a565b8686815181106119a4576119a3612053565b5b602002602001015185815181106119be576119bd612053565b5b6020026020010181815250505050505b80806119d9906121c0565b915050611758565b5080806119ed906121c0565b91505061174a565b5060006064611a048585611aa0565b838681518110611a1757611a16612053565b5b60200260200101518581518110611a3157611a30612053565b5b6020026020010151611a439190612981565b6001611a4f919061291e565b611a5991906129b2565b905080965050505050505092915050565b6000828410611a8757818310611a805781611a82565b825b611a97565b818410611a945781611a96565b835b5b90509392505050565b6000818311611aaf5781611ab1565b825b905092915050565b508054611ac5906120b1565b6000825580601f10611ad75750611af6565b601f016020900490600052602060002090810190611af59190611af9565b5b50565b5b80821115611b12576000816000905550600101611afa565b5090565b600073ffffffffffffffffffffffffffffffffffffffff82169050919050565b6000611b4182611b16565b9050919050565b611b5181611b36565b82525050565b6000602082019050611b6c6000830184611b48565b92915050565b6000604051905090565b600080fd5b600080fd5b600080fd5b600080fd5b6000601f19601f8301169050919050565b7f4e487b7100000000000000000000000000000000000000000000000000000000600052604160045260246000fd5b611bd982611b90565b810181811067ffffffffffffffff82111715611bf857611bf7611ba1565b5b80604052505050565b6000611c0b611b72565b9050611c178282611bd0565b919050565b600067ffffffffffffffff821115611c3757611c36611ba1565b5b611c4082611b90565b9050602081019050919050565b82818337600083830152505050565b6000611c6f611c6a84611c1c565b611c01565b905082815260208101848484011115611c8b57611c8a611b8b565b5b611c96848285611c4d565b509392505050565b600082601f830112611cb357611cb2611b86565b5b8135611cc3848260208601611c5c565b91505092915050565b600060208284031215611ce257611ce1611b7c565b5b600082013567ffffffffffffffff811115611d0057611cff611b81565b5b611d0c84828501611c9e565b91505092915050565b600081519050919050565b600082825260208201905092915050565b60005b83811015611d4f578082015181840152602081019050611d34565b60008484015250505050565b6000611d6682611d15565b611d708185611d20565b9350611d80818560208601611d31565b611d8981611b90565b840191505092915050565b60006020820190508181036000830152611dae8184611d5b565b905092915050565b60008060408385031215611dcd57611dcc611b7c565b5b600083013567ffffffffffffffff811115611deb57611dea611b81565b5b611df785828601611c9e565b925050602083013567ffffffffffffffff811115611e1857611e17611b81565b5b611e2485828601611c9e565b9150509250929050565b600081519050919050565b600082825260208201905092915050565b6000819050602082019050919050565b600082825260208201905092915050565b6000611e7682611d15565b611e808185611e5a565b9350611e90818560208601611d31565b611e9981611b90565b840191505092915050565b6000819050919050565b611eb781611ea4565b82525050565b600060a0830160008301518482036000860152611eda8282611e6b565b91505060208301518482036020860152611ef48282611e6b565b91505060408301518482036040860152611f0e8282611e6b565b91505060608301518482036060860152611f288282611e6b565b9150506080830151611f3d6080860182611eae565b508091505092915050565b6000611f548383611ebd565b905092915050565b6000602082019050919050565b6000611f7482611e2e565b611f7e8185611e39565b935083602082028501611f9085611e4a565b8060005b85811015611fcc5784840389528151611fad8582611f48565b9450611fb883611f5c565b925060208a01995050600181019050611f94565b50829750879550505050505092915050565b60006020820190508181036000830152611ff88184611f69565b905092915050565b600081905092915050565b600061201682611d15565b6120208185612000565b9350612030818560208601611d31565b80840191505092915050565b6000612048828461200b565b915081905092915050565b7f4e487b7100000000000000000000000000000000000000000000000000000000600052603260045260246000fd5b7f4e487b7100000000000000000000000000000000000000000000000000000000600052602260045260246000fd5b600060028204905060018216806120c957607f821691505b6020821081036120dc576120db612082565b5b50919050565b60008190508160005260206000209050919050565b60008154612104816120b1565b61210e8186612000565b94506001821660008114612129576001811461213e57612171565b60ff1983168652811515820286019350612171565b612147856120e2565b60005b838110156121695781548189015260018201915060208101905061214a565b838801955050505b50505092915050565b600061218682846120f7565b915081905092915050565b7f4e487b7100000000000000000000000000000000000000000000000000000000600052601160045260246000fd5b60006121cb82611ea4565b91507fffffffffffffffffffffffffffffffffffffffffffffffffffffffffffffffff82036121fd576121fc612191565b5b600182019050919050565b7f444e412066696c65206e6f7420666f756e642e00000000000000000000000000600082015250565b600061223e601383611d20565b915061224982612208565b602082019050919050565b6000602082019050818103600083015261226d81612231565b9050919050565b7f444e41206e616d652063616e6e6f7420626520656d7074792e00000000000000600082015250565b60006122aa601983611d20565b91506122b582612274565b602082019050919050565b600060208201905081810360008301526122d98161229d565b9050919050565b7f4950465320686173682063616e6e6f7420626520656d7074792e000000000000600082015250565b6000612316601a83611d20565b9150612321826122e0565b602082019050919050565b6000602082019050818103600083015261234581612309565b9050919050565b60006020601f8301049050919050565b600082821b905092915050565b6000600883026123997fffffffffffffffffffffffffffffffffffffffffffffffffffffffffffffffff8261235c565b6123a3868361235c565b95508019841693508086168417925050509392505050565b6000819050919050565b60006123e06123db6123d684611ea4565b6123bb565b611ea4565b9050919050565b6000819050919050565b6123fa836123c5565b61240e612406826123e7565b848454612369565b825550505050565b600090565b612423612416565b61242e8184846123f1565b505050565b5b818110156124525761244760008261241b565b600181019050612434565b5050565b601f82111561249757612468816120e2565b6124718461234c565b81016020851015612480578190505b61249461248c8561234c565b830182612433565b50505b505050565b600082821c905092915050565b60006124ba6000198460080261249c565b1980831691505092915050565b60006124d383836124a9565b9150826002028217905092915050565b6124ec82611d15565b67ffffffffffffffff81111561250557612504611ba1565b5b61250f82546120b1565b61251a828285612456565b600060209050601f83116001811461254d576000841561253b578287015190505b61254585826124c7565b8655506125ad565b601f19841661255b866120e2565b60005b828110156125835784890151825560018201915060208501945060208101905061255e565b868310156125a0578489015161259c601f8916826124a9565b8355505b6001600288020188555050505b505050505050565b600060408201905081810360008301526125cf8185611d5b565b905081810360208301526125e38184611d5b565b90509392505050565b7f4f6e6c792074686520636f6e7472616374206f776e65722063616e207065726660008201527f6f726d207468697320616374696f6e2e00000000000000000000000000000000602082015250565b6000612648603083611d20565b9150612653826125ec565b604082019050919050565b600060208201905081810360008301526126778161263b565b9050919050565b7f444e412063616e6e6f7420626520656d7074792e000000000000000000000000600082015250565b60006126b4601483611d20565b91506126bf8261267e565b602082019050919050565b600060208201905081810360008301526126e3816126a7565b9050919050565b60006126f682856120f7565b915061270282846120f7565b91508190509392505050565b600061271a828561200b565b9150612726828461200b565b91508190509392505050565b7f444e412066696c652068617320616c7265616479206265656e2075706c6f616460008201527f65642e0000000000000000000000000000000000000000000000000000000000602082015250565b600061278e602383611d20565b915061279982612732565b604082019050919050565b600060208201905081810360008301526127bd81612781565b9050919050565b60006127d0828561200b565b91506127dc82846120f7565b91508190509392505050565b6127f181611ea4565b82525050565b60008154612804816120b1565b61280e8186611d20565b94506001821660008114612829576001811461283f57612872565b60ff198316865281151560200286019350612872565b612848856120e2565b60005b8381101561286a5781548189015260018201915060208101905061284b565b808801955050505b50505092915050565b600060a08201905061289060008301886127e8565b81810360208301526128a28187611d5b565b905081810360408301526128b681866127f7565b905081810360608301526128ca8185611d5b565b905081810360808301526128de81846127f7565b90509695505050505050565b60006128f582611ea4565b915061290083611ea4565b925082820190508082111561291857612917612191565b5b92915050565b600061292982611ea4565b915061293483611ea4565b925082820390508181111561294c5761294b612191565b5b92915050565b7f4e487b7100000000000000000000000000000000000000000000000000000000600052601260045260246000fd5b600061298c82611ea4565b915061299783611ea4565b9250826129a7576129a6612952565b5b828204905092915050565b60006129bd82611ea4565b91506129c883611ea4565b92508282026129d681611ea4565b915082820484148315176129ed576129ec612191565b5b509291505056fea264697066735822122064127d353eb43e6ca19dd284192418c8a09497bf2b8302b80203f364b915612264736f6c63430008130033",
  "immutableReferences": {},
  "source": "//This code has the access for only owner\r\n// this code get only csv file\r\n// SPDX-License-Identifier: MIT\r\npragma solidity ^0.8.19;\r\n\r\n//import \"@openzeppelin/contracts/token/ERC721/ERC721.sol\";\r\n\r\ncontract cont{\r\n  struct DNA {\r\n        string name;\r\n        string ipfsHash;\r\n    }\r\n\r\n    // Define a struct to represent similar DNA files\r\n    struct SimilarDNA {\r\n        string name1;\r\n        string name2;\r\n        string ipfsHash1;\r\n        string ipfsHash2;\r\n        uint256 similarityPercentage;\r\n    }\r\n\r\n    // Declare a variable to store the contract owner's address\r\n    address public owner;\r\n\r\n    // Constructor to set the contract owner as the deployer of the contract\r\n    constructor() {\r\n        owner = msg.sender;\r\n    }\r\n\r\n    // Modifier to restrict certain functions to be called only by the contract owner\r\n    modifier onlyOwner() {\r\n        require(msg.sender == owner, \"Only the contract owner can perform this action.\");\r\n        _;\r\n    }\r\n\r\n    // Declare mappings to store DNA records and similar DNA files\r\n    mapping(address => DNA[]) private dnaRegistry;\r\n    mapping(address => mapping(bytes32 => SimilarDNA[])) private similarFiles;\r\n\r\n    // Declare events to emit when DNA files are uploaded, updated, or removed, and when family matches are found\r\n    event DNAUploaded(\r\n        address indexed uploader,\r\n        string name,\r\n        string ipfsHash\r\n    );\r\n\r\n    event DNAUpdated(\r\n        address indexed updater,\r\n        string name,\r\n        string ipfsHash\r\n    );\r\n\r\n    event DNARemoved(\r\n        address indexed remover,\r\n        string name\r\n    );\r\n\r\n    event FamilyMatch(\r\n        address indexed user,\r\n        uint256 similarityScore,\r\n        string name1,\r\n        string name2,\r\n        string ipfsHash1,\r\n        string ipfsHash2\r\n    );\r\n\r\n    // Function to upload a single DNA file, accessible only by the contract owner\r\n    function uploadSingleDNA(string memory _name, string memory _ipfsHash) public onlyOwner {\r\n    // Check that the DNA name and IPFS hash are not empty\r\n       require(bytes(_name).length > 0, \"DNA cannot be empty.\");\r\n       require(bytes(_ipfsHash).length > 0, \"IPFS hash cannot be empty.\");\r\n\r\n    // Check if the DNA file has already been uploaded\r\n       for (uint256 i = 0; i < dnaRegistry[msg.sender].length; i++) {\r\n           require(\r\n            keccak256(abi.encodePacked(_name, _ipfsHash)) !=\r\n                keccak256(abi.encodePacked(dnaRegistry[msg.sender][i].name, dnaRegistry[msg.sender][i].ipfsHash)),\r\n            \"DNA file has already been uploaded.\"\r\n        );\r\n    }\r\n\r\n    // Add the DNA record to the sender's registry\r\n    dnaRegistry[msg.sender].push(DNA({ name: _name, ipfsHash: _ipfsHash }));\r\n\r\n    // Check for family matches with other DNA files in the registry\r\n    for (uint256 i = 0; i < dnaRegistry[msg.sender].length; i++) {\r\n        // Calculate the similarity score between the newly uploaded DNA file and the existing files\r\n        uint256 similarityScore = calculateSimilarityScore(_ipfsHash, dnaRegistry[msg.sender][i].ipfsHash);\r\n\r\n        // If the similarity score is above or equal to 90%, add it to the similarFiles mapping\r\n        if (similarityScore >= 90) {\r\n            bytes32 hash = keccak256(abi.encodePacked(_ipfsHash, dnaRegistry[msg.sender][i].ipfsHash));\r\n            similarFiles[msg.sender][hash].push(\r\n                SimilarDNA({\r\n                    name1: _name,\r\n                    name2: dnaRegistry[msg.sender][i].name,\r\n                    ipfsHash1: _ipfsHash,\r\n                    ipfsHash2: dnaRegistry[msg.sender][i].ipfsHash,\r\n                    similarityPercentage: similarityScore\r\n                })\r\n            );\r\n\r\n            // Emit an event for the family match\r\n            emit FamilyMatch(\r\n                msg.sender,\r\n                similarityScore,\r\n                _name,\r\n                dnaRegistry[msg.sender][i].name,\r\n                _ipfsHash,\r\n                dnaRegistry[msg.sender][i].ipfsHash\r\n            );\r\n        }\r\n    }\r\n\r\n    // Emit an event for the uploaded DNA file\r\n    emit DNAUploaded(msg.sender, _name, _ipfsHash);\r\n}\r\n\r\n\r\n    // Function to retrieve the IPFS hash of a DNA file by its name\r\n    function retrieveDNA(string memory _name) public view returns (string memory) {\r\n        for (uint256 i = 0; i < dnaRegistry[msg.sender].length; i++) {\r\n            if (keccak256(abi.encodePacked(dnaRegistry[msg.sender][i].name)) == keccak256(abi.encodePacked(_name))) {\r\n                return dnaRegistry[msg.sender][i].ipfsHash;\r\n            }\r\n        }\r\n\r\n        revert(\"DNA file not found.\");\r\n    }\r\n\r\n    // Function to update the IPFS hash of a DNA file by its name\r\n    function updateDNA(string memory _name, string memory _ipfsHash) public {\r\n        require(bytes(_name).length > 0, \"DNA name cannot be empty.\");\r\n        require(bytes(_ipfsHash).length > 0, \"IPFS hash cannot be empty.\");\r\n\r\n        for (uint256 i = 0; i < dnaRegistry[msg.sender].length; i++) {\r\n            if (keccak256(abi.encodePacked(dnaRegistry[msg.sender][i].name)) == keccak256(abi.encodePacked(_name))) {\r\n                dnaRegistry[msg.sender][i].ipfsHash = _ipfsHash;\r\n                emit DNAUpdated(msg.sender, _name, _ipfsHash);\r\n                return;\r\n            }\r\n        }\r\n        revert(\"DNA file not found.\");\r\n    }\r\n\r\n    // Function to remove a DNA file by its name\r\n    function removeDNA(string memory _name) public {\r\n        require(bytes(_name).length > 0, \"DNA name cannot be empty.\");\r\n\r\n        for (uint256 i = 0; i < dnaRegistry[msg.sender].length; i++) {\r\n            if (keccak256(abi.encodePacked(dnaRegistry[msg.sender][i].name)) == keccak256(abi.encodePacked(_name))) {\r\n                delete dnaRegistry[msg.sender][i];\r\n                emit DNARemoved(msg.sender, _name);\r\n                return;\r\n            }\r\n        }\r\n        revert(\"DNA file not found.\");\r\n    }\r\n\r\n     function calculateSimilarityScore(string memory _ipfsHash1, string memory _ipfsHash2) private pure returns (uint256) {\r\n        bytes memory sequence1 = bytes(_ipfsHash1);\r\n        bytes memory sequence2 = bytes(_ipfsHash2);\r\n\r\n        uint256 m = sequence1.length;\r\n        uint256 n = sequence2.length;\r\n\r\n        uint256[][] memory scoreMatrix = new uint256[][](m + 1);\r\n\r\n        for (uint256 i = 0; i < m + 1; i++) {\r\n            scoreMatrix[i] = new uint256[](n + 1);\r\n            scoreMatrix[i][0] = i;\r\n        }\r\n\r\n        for (uint256 j = 0; j < n + 1; j++) {\r\n            scoreMatrix[0][j] = j;\r\n        }\r\n\r\n        for (uint256 i = 1; i <= m; i++) {\r\n            for (uint256 j = 1; j <= n; j++) {\r\n                if (sequence1[i - 1] == sequence2[j - 1]) {\r\n                    scoreMatrix[i][j] = scoreMatrix[i - 1][j - 1];\r\n                } else {\r\n                    uint256 substitution = scoreMatrix[i - 1][j - 1] + 1;\r\n                    uint256 deletion = scoreMatrix[i - 1][j] + 1;\r\n                    uint256 insertion = scoreMatrix[i][j - 1] + 1;\r\n                    scoreMatrix[i][j] = min(substitution, deletion, insertion);\r\n                }\r\n            }\r\n        }\r\n\r\n        uint256 similarityScore = (1 - (scoreMatrix[m][n] / max(m, n))) * 100;\r\n\r\n        return similarityScore;\r\n    }\r\n\r\n    function getSimilarFiles(string memory _ipfsHash) public view returns (SimilarDNA[] memory) {\r\n        bytes32 hash = keccak256(abi.encodePacked(_ipfsHash));\r\n        return similarFiles[msg.sender][hash];\r\n    }\r\n\r\n    function min(uint256 a, uint256 b, uint256 c) private pure returns (uint256) {\r\n        return a < b ? (a < c ? a : c) : (b < c ? b : c);\r\n    }\r\n\r\n    function max(uint256 a, uint256 b) private pure returns (uint256) {\r\n        return a > b ? a : b;\r\n    }\r\n}",
  "sourcePath": "C:\\Users\\drsar\\Downloads\\React-PHP - Copy\\React-PHP - Copy\\contracts\\cont.sol",
  "compiler": {
    "name": "solc",
    "version": "0.8.19+commit.7dd6d404.Emscripten.clang"
  },
  "schemaVersion": "3.4.13",
  "updatedAt": "2023-06-16T21:37:16.394Z",
  "networkType": "ethereum",
  "devdoc": {
    "kind": "dev",
    "methods": {},
    "version": 1
  },
  "userdoc": {
    "kind": "user",
    "methods": {},
    "version": 1
  }
}